{
  "contractName": "VoteContract",
  "abi": [
    {
      "inputs": [],
      "stateMutability": "nonpayable",
      "type": "constructor"
    },
    {
      "inputs": [],
      "name": "admin",
      "outputs": [
        {
          "internalType": "address",
          "name": "",
          "type": "address"
        }
      ],
      "stateMutability": "view",
      "type": "function",
      "constant": true
    },
    {
      "inputs": [
        {
          "internalType": "uint256",
          "name": "",
          "type": "uint256"
        }
      ],
      "name": "candidates",
      "outputs": [
        {
          "internalType": "uint256",
          "name": "id",
          "type": "uint256"
        },
        {
          "internalType": "string",
          "name": "name",
          "type": "string"
        },
        {
          "internalType": "uint256",
          "name": "voteCount",
          "type": "uint256"
        }
      ],
      "stateMutability": "view",
      "type": "function",
      "constant": true
    },
    {
      "inputs": [],
      "name": "candidatesCount",
      "outputs": [
        {
          "internalType": "uint256",
          "name": "",
          "type": "uint256"
        }
      ],
      "stateMutability": "view",
      "type": "function",
      "constant": true
    },
    {
      "inputs": [
        {
          "internalType": "address",
          "name": "",
          "type": "address"
        }
      ],
      "name": "voters",
      "outputs": [
        {
          "internalType": "bool",
          "name": "hasVoted",
          "type": "bool"
        },
        {
          "internalType": "uint256",
          "name": "voteCandidateId",
          "type": "uint256"
        }
      ],
      "stateMutability": "view",
      "type": "function",
      "constant": true
    },
    {
      "inputs": [
        {
          "internalType": "string",
          "name": "_name",
          "type": "string"
        }
      ],
      "name": "addCandidate",
      "outputs": [],
      "stateMutability": "nonpayable",
      "type": "function"
    },
    {
      "inputs": [
        {
          "internalType": "uint256",
          "name": "_candidateId",
          "type": "uint256"
        }
      ],
      "name": "vote",
      "outputs": [],
      "stateMutability": "nonpayable",
      "type": "function"
    },
    {
      "inputs": [
        {
          "internalType": "uint256",
          "name": "_candidateId",
          "type": "uint256"
        }
      ],
      "name": "getVotes",
      "outputs": [
        {
          "internalType": "uint256",
          "name": "",
          "type": "uint256"
        }
      ],
      "stateMutability": "view",
      "type": "function",
      "constant": true
    }
  ],
  "bytecode": "0x608060405234801561001057600080fd5b50336000806101000a81548173ffffffffffffffffffffffffffffffffffffffff021916908373ffffffffffffffffffffffffffffffffffffffff160217905550610c3f806100606000396000f3fe608060405234801561001057600080fd5b506004361061007d5760003560e01c8063462e91ec1161005b578063462e91ec146100ee578063a3ec138d1461010a578063f851a4401461013b578063ff981099146101595761007d565b80630121b93f146100825780632d35a8a21461009e5780633477ee2e146100bc575b600080fd5b61009c60048036038101906100979190610749565b610189565b005b6100a661031d565b6040516100b39190610962565b60405180910390f35b6100d660048036038101906100d19190610749565b610323565b6040516100e59392919061097d565b60405180910390f35b61010860048036038101906101039190610708565b6103d5565b005b610124600480360381019061011f91906106df565b6104e5565b6040516101329291906108d9565b60405180910390f35b610143610516565b60405161015091906108be565b60405180910390f35b610173600480360381019061016e9190610749565b61053a565b6040516101809190610962565b60405180910390f35b600260003373ffffffffffffffffffffffffffffffffffffffff1673ffffffffffffffffffffffffffffffffffffffff16815260200190815260200160002060000160009054906101000a900460ff1615610219576040517f08c379a000000000000000000000000000000000000000000000000000000000815260040161021090610942565b60405180910390fd5b60008111801561022b57506003548111155b61026a576040517f08c379a000000000000000000000000000000000000000000000000000000000815260040161026190610902565b60405180910390fd5b604051806040016040528060011515815260200182815250600260003373ffffffffffffffffffffffffffffffffffffffff1673ffffffffffffffffffffffffffffffffffffffff16815260200190815260200160002060008201518160000160006101000a81548160ff0219169083151502179055506020820151816001015590505060016000828152602001908152602001600020600201600081548092919061031590610af4565b919050555050565b60035481565b600160205280600052604060002060009150905080600001549080600101805461034c90610ac2565b80601f016020809104026020016040519081016040528092919081815260200182805461037890610ac2565b80156103c55780601f1061039a576101008083540402835291602001916103c5565b820191906000526020600020905b8154815290600101906020018083116103a857829003601f168201915b5050505050908060020154905083565b60008054906101000a900473ffffffffffffffffffffffffffffffffffffffff1673ffffffffffffffffffffffffffffffffffffffff163373ffffffffffffffffffffffffffffffffffffffff1614610463576040517f08c379a000000000000000000000000000000000000000000000000000000000815260040161045a90610922565b60405180910390fd5b6003600081548092919061047690610af4565b91905055506040518060600160405280600354815260200182815260200160008152506001600060035481526020019081526020016000206000820151816000015560208201518160010190805190602001906104d49291906105aa565b506040820151816002015590505050565b60026020528060005260406000206000915090508060000160009054906101000a900460ff16908060010154905082565b60008054906101000a900473ffffffffffffffffffffffffffffffffffffffff1681565b6000808211801561054d57506003548211155b61058c576040517f08c379a000000000000000000000000000000000000000000000000000000000815260040161058390610902565b60405180910390fd5b60016000838152602001908152602001600020600201549050919050565b8280546105b690610ac2565b90600052602060002090601f0160209004810192826105d8576000855561061f565b82601f106105f157805160ff191683800117855561061f565b8280016001018555821561061f579182015b8281111561061e578251825591602001919060010190610603565b5b50905061062c9190610630565b5090565b5b80821115610649576000816000905550600101610631565b5090565b600061066061065b846109ec565b6109bb565b90508281526020810184848401111561067857600080fd5b610683848285610a80565b509392505050565b60008135905061069a81610bdb565b92915050565b600082601f8301126106b157600080fd5b81356106c184826020860161064d565b91505092915050565b6000813590506106d981610bf2565b92915050565b6000602082840312156106f157600080fd5b60006106ff8482850161068b565b91505092915050565b60006020828403121561071a57600080fd5b600082013567ffffffffffffffff81111561073457600080fd5b610740848285016106a0565b91505092915050565b60006020828403121561075b57600080fd5b6000610769848285016106ca565b91505092915050565b61077b81610a38565b82525050565b61078a81610a4a565b82525050565b600061079b82610a1c565b6107a58185610a27565b93506107b5818560208601610a8f565b6107be81610bca565b840191505092915050565b60006107d6601183610a27565b91507f496e76616c69642063616e6469646174650000000000000000000000000000006000830152602082019050919050565b6000610816602283610a27565b91507f4f6e6c792061646d696e2063616e20706572666f726d2074686973206163746960008301527f6f6e0000000000000000000000000000000000000000000000000000000000006020830152604082019050919050565b600061087c601683610a27565b91507f596f75206861766520616c726561647920766f746564000000000000000000006000830152602082019050919050565b6108b881610a76565b82525050565b60006020820190506108d36000830184610772565b92915050565b60006040820190506108ee6000830185610781565b6108fb60208301846108af565b9392505050565b6000602082019050818103600083015261091b816107c9565b9050919050565b6000602082019050818103600083015261093b81610809565b9050919050565b6000602082019050818103600083015261095b8161086f565b9050919050565b600060208201905061097760008301846108af565b92915050565b600060608201905061099260008301866108af565b81810360208301526109a48185610790565b90506109b360408301846108af565b949350505050565b6000604051905081810181811067ffffffffffffffff821117156109e2576109e1610b9b565b5b8060405250919050565b600067ffffffffffffffff821115610a0757610a06610b9b565b5b601f19601f8301169050602081019050919050565b600081519050919050565b600082825260208201905092915050565b6000610a4382610a56565b9050919050565b60008115159050919050565b600073ffffffffffffffffffffffffffffffffffffffff82169050919050565b6000819050919050565b82818337600083830152505050565b60005b83811015610aad578082015181840152602081019050610a92565b83811115610abc576000848401525b50505050565b60006002820490506001821680610ada57607f821691505b60208210811415610aee57610aed610b6c565b5b50919050565b6000610aff82610a76565b91507fffffffffffffffffffffffffffffffffffffffffffffffffffffffffffffffff821415610b3257610b31610b3d565b5b600182019050919050565b7f4e487b7100000000000000000000000000000000000000000000000000000000600052601160045260246000fd5b7f4e487b7100000000000000000000000000000000000000000000000000000000600052602260045260246000fd5b7f4e487b7100000000000000000000000000000000000000000000000000000000600052604160045260246000fd5b6000601f19601f8301169050919050565b610be481610a38565b8114610bef57600080fd5b50565b610bfb81610a76565b8114610c0657600080fd5b5056fea26469706673582212200d801c3d2079013435fa7ab92bc16672f51917155d23d7994cd6d95878f0c50d64736f6c63430008000033",
  "immutableReferences": {},
  "source": "// SPDX-License-Identifier: MIT\npragma solidity ^0.8.0;\n\ncontract VoteContract {\n    struct Candidate {\n        uint id;\n        string name;\n        uint voteCount;\n    }\n\n    struct Voter {\n        bool hasVoted;\n        uint voteCandidateId;\n    }\n\n    address public admin;\n    mapping(uint => Candidate) public candidates;\n    mapping(address => Voter) public voters;\n    uint public candidatesCount;\n\n    constructor() {\n        admin = msg.sender;  // Dfinit l'administrateur comme celui qui dploie le contrat\n    }\n\n    modifier onlyAdmin() {\n        require(msg.sender == admin, \"Only admin can perform this action\");\n        _;\n    }\n\n    // Ajouter un candidat (par l'admin)\n    function addCandidate(string memory _name) public onlyAdmin {\n        candidatesCount++;\n        candidates[candidatesCount] = Candidate(candidatesCount, _name, 0);\n    }\n\n    // Voter pour un candidat (par un lecteur)\n    function vote(uint _candidateId) public {\n        require(!voters[msg.sender].hasVoted, \"You have already voted\");\n        require(_candidateId > 0 && _candidateId <= candidatesCount, \"Invalid candidate\");\n\n        voters[msg.sender] = Voter(true, _candidateId);\n        candidates[_candidateId].voteCount++;\n    }\n\n    // Rcuprer le nombre de votes d'un candidat\n    function getVotes(uint _candidateId) public view returns (uint) {\n        require(_candidateId > 0 && _candidateId <= candidatesCount, \"Invalid candidate\");\n        return candidates[_candidateId].voteCount;\n    }\n}\n",
  "sourcePath": "/home/infraction/vote-system/contracts/VoteContract.sol",
  "compiler": {
    "name": "solc",
    "version": "0.8.0+commit.c7dfd78e.Emscripten.clang"
  },
  "schemaVersion": "3.4.16",
  "updatedAt": "2024-09-13T10:04:13.888Z",
  "networkType": "ethereum",
  "devdoc": {
    "kind": "dev",
    "methods": {},
    "version": 1
  },
  "userdoc": {
    "kind": "user",
    "methods": {},
    "version": 1
  }
}